:020000040800F2
:10000000B80800200101000837100008450F00085B
:10001000351000086D010008E11200080000000022
:10002000000000000000000000000000291200088D
:100030007D01000800000000891100082B12000853
:100040001B0100081B0100081B0100081B01000820
:100050001B0100081B0100081B0100081B01000810
:100060001B0100081B0100081B0100081B01000800
:100070001B010008710100081B0100081B0100089A
:100080001B0100081B0100081B0100081B010008E0
:100090001B0100081B0100081B0100081B010008D0
:1000A0001B0100081B0100081B0100081B010008C0
:1000B0001B0100081B0100081B0100081B010008B0
:1000C0001B0100081B0100081B0100081B010008A0
:1000D0001B0100081B0100081B0100081B01000890
:1000E0001B0100081B0100081B010008DFF80CD0F1
:1000F00000F02AF800480047D1130008B808002093
:100100000648804706480047FEE7FEE7FEE7FEE7B1
:10011000FEE7FEE7FEE7FEE7FEE7FEE795120008D2
:10012000ED000008D2B201E000F8012B491EFBD21D
:1001300070470022F6E710B513460A4604461946F2
:10014000FFF7F0FF204610BD064C074D06E0E068C3
:1001500040F0010394E8070098471034AC42F6D30E
:10016000FFF7C8FFAC4B0008CC4B0008FEE70000CF
:10017000014800F009B800BF100000207047EFF3FD
:10018000108072B6FEE7000070B50168D0E9102358
:1001900014680D686E071DD504269E40264019D0B0
:1001A0000A68920603D40A6822F004020A603D4BF2
:1001B0003B4A994255D03C4B994241D03B4B9942E6
:1001C00040D03B4B994240D03A4B994240D14FF4FA
:1001D000802347E0AE071FD502269E4026401BD055
:1001E0000A68920605D4012242620A6822F00A02D5
:1001F0000A602C4B2A4A994237D02B4B994236D071
:100200002A4B994235D02A4B994235D0294B9942F5
:1002100035D14FF400333AE02D0740D508259D40F5
:100220002C403CD00C6824F00E040C60012101FA33
:1002300003F353600022C0E90821C163416B2AE047
:1002400040230FE04FF480630CE04FF4804309E05B
:1002500002F168044FF08063A14208BF4FF48003AD
:1002600000E004231360016B15E002230FE020235C
:100270000DE04FF400730AE04FF4005307E002F181
:1002800068044FF00073A14208BF4FF4001300212F
:1002900001621360C16A11B1BDE87040084770BDCA
:1002A00004000240080002401C00024030000240EE
:1002B0004400024058000240012138B32DE9F043C8
:1002C00090E8040300F10C0E9EE8E050136843F63A
:1002D000F074A34343EA080343EA09032B4333437F
:1002E0003B4343EA0C0343EA0E031360084B0364E9
:1002F0000023C0E90831074911441422B1FBF2F18F
:10030000890041640021C363BDE8F043084670479B
:1003100000000240F8FFFDBFB0B5044600F0E2F86F
:1003200005468D48611C406818BF044400F0DAF8A7
:10033000401BA042FAD3B0BD2DE9FC4F5A4A04231A
:100340004FF0000B4FF001084FF00F0E4FF0000977
:100350000025904208BF032300930B6833FA05F28F
:1003600008BFBDE8FC8F08FA05F2134200F0978041
:100370004F68032F16D9112F24D0122F26D04D4BA2
:100380009F4213D04C4B9F4210D04C4B9F420DD0FC
:100390004B4B9F420AD04B4B9F4207D04A4B9F4248
:1003A00004D020E0DFE807F00216191D8B6833B196
:1003B000012B14BF426102614FF0080913E04FF0B6
:1003C000040910E0CB6803F104090CE0CB6803F1E9
:1003D0000C0908E0D1F80C9005E0CB6803F108099E
:1003E00001E04FF000095B460646082D28BF203B80
:1003F00028BF043637680EFA03F427EA040409FA22
:1004000003F323433360CB79DB0648D5624B274E99
:100410001C461B68A6F57E7643F001032360236823
:100420000BF00C0C03F001030193019CAC0856F88F
:1004300024700EFA0CF327EA030A244B984208D0E2
:10044000234B984207D0234B9842009B08BF0223BE
:1004500002E0002300E0012303FA0CF343EA0A035D
:1004600046F824304F68114CFB03236854BF934374
:1004700013432360BB03636854BF93431343636018
:10048000FB02A36854BF93431343A360BB02084B12
:100490001C461B6854BF23EA02021A4322600BF178
:1004A000040B013559E700BF00140140000401406E
:1004B0000C04014000001110000012100000211077
:1004C000000022100000311000003210000801402E
:1004D000000C014000100140002A08BF090401611E
:1004E0007047000005480068704700BF1A4803497C
:1004F00040680A6810440860704700BFB4040020D8
:1005000080B59648016841F010010160032000F0B9
:100510007DF8002000F004F800F020F8002080BDF5
:1005200070B50D4E044670684FF47A71B1FBF0F06F
:100530008C490968B1FBF0F000F0F0FC01250F2CAC
:1005400008D838B94FF0FF3021460022002500F0CE
:1005500035F83460284670BD00000020E0B50E4834
:10056000016841F001010160016801F001010191A0
:100570000199416841F080514160406800F080502D
:1005800000900098052000F041F80448022201681C
:1005900062F31A6101608CBD181002400400014032
:1005A000002808D400F01F01012202FA01F1024ADA
:1005B000400942F82010704700E100E0B0B500F0BB
:1005C0000F04184D043C2C440C340F4BB0F1FF3F8A
:1005D000C8BFC41828684FF0FF35C0F30220C31EFF
:1005E00080F0070038BF0023042828BF042005FA44
:1005F00000F021EA000005FA03F1984022EA010127
:10060000084300012070B0BD00E400E005494FF64A
:10061000FF030A681A4060F30A2203481043086087
:10062000704700BF0CED00E00000FA052DE9F8432B
:10063000002800F09080884648490446086800F089
:10064000070040450AD2086820F0070040EA080089
:100650000860086800F0070040457CD12068504BD6
:100660008946810711D5410703D5196841F4E06136
:100670001960010703D5196841F460511960A16838
:100680001A6822F0F00211431960C0072BD060688D
:10069000012804D153F8041C890309D45BE053F802
:1006A000041C022802D1890102D454E0890752D5E2
:1006B00019681D4621F0030108431860FFF712FF77
:1006C000064641F28837606829682B4601F00C0124
:1006D000B1EB800F07D0FFF705FF801BB842F2D9BE
:1006E0000320BDE8F883D9F8000000F0070040457A
:1006F0000DD9D9F8000020F0070040EA0800C9F839
:100700000000D9F8000000F00700404523D1206820
:10071000410705D5E1681A6822F4E06211431960C7
:10072000000706D52069196821F4605141EAC0002C
:1007300018601C4600F01AF82168094AC1F3031139
:10074000515CC840E849086007480068FFF7E8FEC8
:100750000020BDE8F8830120BDE8F88300200240B6
:10076000BA220008080000200000002010B50C4943
:100770000C480A6802F00C03082B07D1C2F383432C
:1007800009A4E35CD20302D40C48584310BD0968A5
:1007900009A2C1F34041515C5843B0FBF1F010BDD8
:1007A0000410024000127A0002030405060708093B
:1007B0000A0B0C0D0E0F10100102000000093D0085
:1007C0002DE9FC41002800F0CC8004460078C44E9E
:1007D000C0074AD0706800F00C00042817D0706879
:1007E00000F00C00082802D17068C0030FD46068C4
:1007F00098B1B0F5803F06D03168B0F5A02F21D177
:1008000041F480203060306840F4803020E030686F
:1008100080032AD5606840BBA3E0306820F48030B4
:100820003060306820F480203060FFF75BFE0546C2
:100830003068800319D5FFF755FE411B032064295A
:10084000F6D94AE121F480303060306820F480200D
:100850003060FFF747FE05463068800305D4FFF798
:1008600041FE401B6428F7D90AE1207880072CD587
:10087000706810F00C0F07D0706800F00C000828AA
:1008800009D17068C00306D43068800716D5206986
:10089000012813D065E021699248002900F0B58055
:1008A00001210160FFF71EFE05463068800705D470
:1008B000FFF718FE401B0228F7D9E1E060693168B4
:1008C00021F0F80141EAC0003060207800072ED501
:1008D000A06978B183480121C0F88014FFF702FEB7
:1008E0000546706A800715D4FFF7FCFD401B0228FF
:1008F000F7D9C5E07B480021C0F88014FFF7F2FD6E
:100900000546706A800712D5FFF7ECFD401B0228F0
:10091000F7D9B5E074484FF4FA510068B0FBF1F034
:10092000019000BF0198411E00280191F9D1207863
:10093000400719D4E769002F00F0CE80706800F0FE
:100940000C00082843D1012F0BD0216A706800F4F5
:1009500080328A4205D1616A00F47010884200F04A
:10096000BB800120BDE8FC81F069C0000BD4F069B8
:100970004FF0010840F08050F061F06900F08050C5
:100980000090009801E04FF00008584F3868C0050B
:100990000FD4386840F480703860FFF7A3FD054637
:1009A0003868C00505D4FFF79DFD401B6428F7D9C2
:1009B00066E0E068C8B3012805D0316A05284BD14C
:1009C00041F004003062306A40F001004AE04549DD
:1009D000002088460866FFF785FD0546022F0AD1EC
:1009E00047463068800157D5FFF77CFD411B032047
:1009F0000229F6D971E0306880016DD5FFF772FDEC
:100A0000411B03200229F6D967E000210160FFF7AE
:100A100069FD0546306880077FF557AFFFF762FD37
:100A2000411B03200229F5D957E0306A20F001006C
:100A30003062306A20F004003062FFF753FD054653
:100A400041F28837306A80071DD5FFF74BFD411B07
:100A50000320B942F6D940E021F001003062306A4B
:100A600020F004003062FFF73DFD054641F2883773
:100A7000306A800707D4FFF735FD401BB842F7D92D
:100A80000320BDE8FC81B8F1000F3FF453AFF069DB
:100A900020F08050F0614DE7206AB0F5803F05D12D
:100AA000A168726822F4003211437160616A0843E0
:100AB000716821F474110843706001203866FFF7F3
:100AC00011FD04463068800106D4FFF70BFD011BC1
:100AD00003200229F6D900E00020BDE8FC8100BF18
:100AE0000010024000004242080000200070004058
:100AF000F8B580B3002484620546406D00284FF0AD
:100B0000000004D128462C6500F028F8A86A0221CC
:100B1000696595E84E001A430F68324327F0400795
:100B20000F602B691A436B691A43AB6903F40076B3
:100B30003243EE6932432E6A324310430860042088
:100B400000EA13404860C86920F40060C8610120D1
:100B5000AC65686500E001242046F8BDF0B585B0BD
:100B600000270446CDE90377CDE90177214D2168BF
:100B700005F5205081423AD11F4801AE016841F489
:100B800080510160016801F4805100910099016871
:100B900041F0040101600068314600F0040000905B
:100BA0000320049002200290A02001900098284683
:100BB000FFF7C2FB0120CDE90270402001902846DA
:100BC0003146FFF7B9FB0D4D0D4A80201021C5E9D4
:100BD0000021C5E902702846C5E90477C5E9067712
:100BE000FFF76AFB08B1FFF7CAFAAC62A56405B06B
:100BF000F0BD00BF000801401810024010000020A6
:100C0000300002402DE9F8430446006D012804BF7E
:100C10000220BDE8F8834FF001091D4616460F4635
:100C2000C4F85090FFF75EFC8046606D012850D1FB
:100C30000120002F00F08A80002E00F08780032022
:100C400060650020A065E686A6862763A087A0636E
:100C5000C4E91000E087A1682068B1F5004F03D116
:100C6000016841F4804101600168490603D40168CC
:100C700041F0400101606168731EE268B1FA81F1E0
:100C8000B3FA83F349095B091943B2F5006F22D126
:100C900031B137F8021BC1602763E08E0138E0866E
:100CA0006E1CE08ED0B320688168890708D4FFF7F6
:100CB00019FC002EF5D0A0EB0800A842F1D344E0C7
:100CC000216B31F8022BC2602163E08E0138E0868F
:100CD000E7E702203AE039B139780173206B01303F
:100CE0002063E08E0138E0866E1CE08EB0B1206893
:100CF0008168890708D4FFF7F5FB002EF5D0A0EB3B
:100D00000800A842F1D320E0216B09780173206B21
:100D100001302063E08E0138E086E6E72046294670
:100D2000424600F032FA08B12020A065A06838B928
:100D3000002000902068C1680091806800900098B1
:100D4000A06D002818BF012000E0032000212165CC
:100D5000C4F85490BDE8F8832DE9F8430446006DCB
:100D6000012804BF0220BDE8F88301201E46154675
:100D70000F462065FFF7B6FB616D8146012967D1FB
:100D80000120002F00F0AD80002D00F0AA80002E81
:100D900000F0A780606D04281CBF0520606500205E
:100DA000A065E687E686A563A6872763C4E91000E9
:100DB000A68620680168490603D4016841F0400115
:100DC00001606168731EE268B1FA81F1B3FA83F3DE
:100DD000DDF8208049095B091943B2F5006F45D160
:100DE00031B137F8021BC1602763E08E0138E0861D
:100DF000012608F10105E08E10B9E08F002876D0B9
:100E00002068816889070CD5E18E012E09D141B196
:100E1000216B002631F8022BC2602163E18E01397B
:100E2000E1868168C9070AD0E18F41B1A16BC06832
:100E3000012621F8020BA163E08F0138E087FFF75C
:100E400051FB002DD7D0A0EB09004045D3D347E09C
:100E50006068B0F5827F07D10220042941D1A168E2
:100E600000293FF48DAF3CE002203AE039B13978F7
:100E70000173206B01302063E08E0138E08601268B
:100E800008F10105E08E08B9E08F80B32068816821
:100E900089070ED5E18E012E0BD151B1216B0026B1
:100EA00009780173216B206801312163E18E0139DA
:100EB000E1868168C9070BD0E18F49B1A16BC06899
:100EC00001260870A06B0130A063E08F0138E08735
:100ED000FFF708FB002DD5D0A0EB09004045D1D38A
:100EE00003200021216501216165BDE8F8832046CA
:100EF00041464A4600F049F918B12020A06501207A
:100F0000EFE7A16800200029EBD100902168CA68B2
:100F10000092896800910099E3E70000411E0020DB
:100F2000B0EB116F1CBF01207047044AF0235160E1
:100F300003490B70072190601160704710E000E0DA
:100F400023ED00E0FEE70000E0B50A48002201685A
:100F500041F0010101600068012100F001000190F1
:100F600001980D20FFF72AFB0D20BDE88C40FFF70C
:100F700017BB00BF141002407FB51C487F4C0168AE
:100F8000012241F0100101600168182501F01001F3
:100F9000009100990168012641F02001016001687B
:100FA00001F0200100910099016841F00401016005
:100FB000016801F0040100910099016841F0080105
:100FC00001600068182100F0080000900098204699
:100FD000FFF782FA03200390002002906946204622
:100FE000CDE90056FFF7A8F97FBD00BF18100240F9
:100FF000F8B564480A2100220D4FC0E90822C0E973
:101000000A2110214FF40073012402254FF4827647
:10101000C0E90076C0E90222C0E90454C0E9063103
:10102000FFF766FD18B1BDE8F840FFF7A8B8F8BDB6
:1010300000300140FEE7FEE770B504460025E8B247
:10104000072888BF70BD0021002600F041F870B26B
:10105000002805D42046012100F06CF80136F6E79F
:101060000135ECE710B5224CAE20A047D520A047B3
:101070008020A047A820A0473F20A047D320A0471A
:101080000020A0474020A047A120A047C820A0479B
:10109000DA20A0471220A0478120A047CF20A047F8
:1010A000D920A047F120A047DB20A0473020A0474F
:1010B000A420A047A620A0478D20A0471420A04729
:1010C000AF20A0470020BDE81040FFF7B5BF00BF2C
:1010D000B0B5074D40F0B0000C46A84720091030CD
:1010E000A84704F00F002946BDE8B040084700BFFC
:1010F000F5100008BCB5214C8DF807000020204DEC
:101100008DF80600204610210022A847204608211D
:101110000022A8474FF47A7000901A480DF1070199
:101120000DF106020123FFF717FE204610210122D0
:10113000A847BCBDBCB5002908BFC0430F4C8DF803
:10114000070000200E4D8DF80600204610210022D9
:10115000A847204608210122A8474FF47A70009042
:1011600008480DF107010DF106020123FFF7F4FD18
:10117000204610210122A847BCBD00BF0008014045
:10118000D904000858000020704710B513460A46DD
:101190008021044600F00AF800280FBF0020A06D4F
:1011A00040F02000A06518BF032010BD2DE9F041DC
:1011B000984616460F460446551C206880683840FD
:1011C000B8422ED1002DF8D0FFF78CF9A0EB080023
:1011D000B042F2D3D4E900014268B1F5827F22F037
:1011E000E00242600AD1A168B1F5004F02D0B1F52A
:1011F000806F03D1016821F040010160A16AB1F55F
:10120000005F07D1016821F400510160016841F4D9
:101210000051016000202065012060650320BDE8C9
:10122000F0810020BDE8F0817047FFF75FB9B0B5ED
:1012300090B0002401A81421CDE90B44CDE9094464
:10124000FEF777FF4FF4E0100F904FF48030022547
:1012500001210E900D950A910894CDE9061006A87B
:10126000FFF7AEFA18B1EFF3108072B6FEE74FF455
:1012700080600594CDE903400F20CDE9010501A868
:101280000221FFF7D3F918B1EFF3108072B6FEE731
:1012900010B0B0BD0E480F4A016841F00101016075
:1012A00041681140416001680B4A114001600168CA
:1012B00021F480210160416821F4FE0141604FF476
:1012C0001F01816005484FF000610160704700BF59
:1012D000001002400000FFF8FFFFF6FE08ED00E0FE
:1012E000FEE700002DE9F0410121044600F06AFA12
:1012F000264F20460021B847254DDFF8988020462C
:101300002946C047254E24A3204600211422B04779
:1013100020460121B84722492046C04721A3204644
:1013200015210822B04720460021B847204629460B
:10133000C0471DA3204633211E22B0471BA32046D1
:1013400043211E22B0472046022123222F2300F0F2
:10135000CEF82046032124222F2300F0C8F820468F
:101360002D2120220C2300F09BF920462E21212242
:101370000C2300F095F90E492046C0470DA32046E6
:1013800001213622B446BDE8F0416047BF1700088E
:10139000AB2500089F170008550000008D160008B7
:1013A000204800083800000067000000B20000007C
:1013B000D82200086769746875622E636F6D2F6F9D
:1013C0006C696B726175732F7538673200000000AD
:1013D000A6B0FFF795F8FFF72AFFFFF7CDFDFFF75F
:1013E000B3FDFFF705FEFFF73DFE01AC204600F020
:1013F0000DF8204600F05AF92046FFF773FF20460B
:1014000000F094F90028F7D1FEE70000BCB51649BA
:10141000164A174B044600F009FA204600F04DFD2D
:101420002046002100F055FD204600F023F84FF43F
:101430007A70FEF771FF3F252046002100227F23AE
:10144000009500F0B2F820467F210022002300958D
:1014500000F0ABF8204600F08BF94FF47A70BDE84D
:10146000BC40FEF759BF00BFCC220008451F000852
:101470007122000880B5026890F83810127C406B29
:101480005143C900FEF755FE80BD0000F8B5044683
:1014900090F870001D4616460F46032816D8DFE860
:1014A00000F002070C11E16D2046884706440DE06C
:1014B000E16D204688473F1A08E0E16D20468847E5
:1014C000361A03E0E16D2046884707442046294646
:1014D000A4F86660A4F8647000F0C2FB20B1014675
:1014E000204600F0CFFA00E0002080B2F8BD1CB525
:1014F0000024009400F001F81CBDFEB5002BADF8EF
:101500000820ADF80A10ADF806304DD0044690F82A
:101510008C00002848D0089815460E46012B08D0AC
:1015200003281FD0022804D1F01A0130ADF80A00B8
:1015300001E0C0071AD1B4F84C00A84234D8B4F87E
:101540004E00A84230D9B4F84A30B4F848200DF122
:101550000A000DF1060100F006FA28B3BDF80A6092
:10156000002018E0E81A0130ADF80800B4F848008F
:10157000B04219D8B4F84A00B04215D9B4F84E3088
:10158000B4F84C2002A80DF1060100F0ECF958B1B6
:10159000BDF808500120216BBDF806308F6800901F
:1015A000204631462A46B847FEBD2DE9FE4F0C9E27
:1015B000B3EB010C019038BFA1EB030CB01A1FFA7A
:1015C0008CFE38BF901B1FFA80F8F04599460C46F8
:1015D00081BFB14614461E460A464C4515468CBF8F
:1015E000354632464FF0FF31AA4288BF0121F0450F
:1015F0000646029188BF66464C4549464FF6FF7243
:1016000088BF2146914208BF0139F04598BF604626
:1016100082B2F246C34607464FEA52084C4588BF9D
:101620004C461FFA81F9A3B24B4588BFBDE8FE8F37
:10163000D34503D90198A9B21A4602E00198AAB28B
:10164000194600F00CF8A8EB06080FFA88F00028FD
:1016500048BFB844029848BF05440134E3E7E0B509
:10166000B0F84C30934210D8B0F84E3093420CD9B9
:10167000B0F848308B4208D8B0F84A308B4204D9D1
:10168000002300930123FFF738FF8CBD10B5034CF6
:101690004460BDE8104000F093B900BF351F00085A
:1016A0001CB501240094FFF728FF1CBD10B50446AB
:1016B00090F8930040B1226894F83810127C606B67
:1016C0005143C900FEF735FD20460021BDE810401A
:1016D00000F057B8F0B5059D84460026AA4288BFA1
:1016E0000126BCF84C700020AF424FF0000538BF17
:1016F0000125BCF84E4006EA0507944288BF46EA39
:101700000507012F11D10022994288BF0122BCF8A0
:1017100048409C4238BF0120BCF84A4002EA00031E
:101720008C4288BF42EA00031846F0BDB0B50446BB
:1017300000F064FB94F8391094F838000144CDB2FD
:1017400021684A7C95420ED294F893202AB1097CF4
:101750004843C100606BFEF7ECFC2046294600F0D0
:1017600010F80120B0BD204600F0ADFB0020B0BD58
:1017700010B5044600F042FB2046BDE8104000F0E2
:10178000A2BB10B580F839100446006B01682046F2
:101790008847206B41682046BDE81040084710B5D7
:1017A0000446806D884208BF10BD04F17400A16535
:1017B00000F0EEFA2046BDE8104000F055B880F881
:1017C0007010704780F86D10704700000149C165C6
:1017D000704700BF2D1A00080249C0E91411016BBF
:1017E000496808470000FFFFB0B50025044680F8AF
:1017F000915080F86D5080F8395080F8382041635E
:10180000C362856540F20110A4F89200049884F840
:101810008D5020630168204688472046FFF7DCFF93
:101820002046FFF7D3FF84F87050B0BD7CB5144656
:101830000D460A490A4A00932346064600F04FFB2C
:101840000DF1070000F09EFA9DF80720054B0146B8
:1018500030460095FFF7C8FF7CBD00BF4D21000852
:10186000E91F00080B1D000810B5816DC9B190F982
:10187000812080F88E2090F9821080F88F1090F8E7
:101880008D3073B1012B0DD190F983309A42B8BFDE
:1018900080F88E3090F984209142C4BF80F88F2068
:1018A00010BD10BD90F97E4090F980301C449442E8
:1018B000C8BF80F88E409942C8BF80F88F3010BDF5
:1018C000022B06D0012B06D0002B14BF1044084475
:1018D00002E0401A00E0801A80B27047022B06D066
:1018E000012B06D0002B14BF401A104402E0801ACE
:1018F00000E0084480B270471CB50446B0F852308E
:10190000B0F85420B0F85010B0F8560000902046BF
:10191000FFF7E0FE18B3012084F88C00B4F8500003
:10192000B4F84810814238BFA4F84800B4F8520017
:10193000B4F84A10814288BFA4F84A00B4F85400B1
:10194000B4F84C10814238BFA4F84C00B4F85600EB
:10195000B4F84E10814288BFA4F84E001CBD002090
:1019600084F88C001CBDF0B505880C886619B4B2EB
:10197000B44203D09D4234BF5E1E154600249D42F2
:101980000CD2B7B2974209D9954238BF15460580A7
:101990009F4288BF1E46701B012408802046F0BD70
:1019A0007CB5C58FC46A069E521B92B20096A047B2
:1019B0007CBD1CB5049C0094FFF7F2FF1CBD000029
:1019C0002DE9F0471C4690468946074600F062FC28
:1019D0004FF6FE76701C4FF0000A85B221787A68C7
:1019E00038469047A8421DD003460134B042F5D096
:1019F0001FFA89F11FFA88F23846FFF747FD97F87A
:101A0000701003290CD8DFE801F0020406098144B4
:101A100006E0804404E0A9EB000901E0A8EB00081F
:101A20008244DBE71FFA8AF0BDE8F08700207047A8
:101A300010B50C4600F00AF8611EC9B24FF0807272
:101A400002FA01F1A0EB116040B210BD70B5057B48
:101A500004686B182278DEB2EA40082E09D3661CAF
:101A60000660C5F108056478EDB2AC40D2B22243FD
:101A7000083B03734FF0FF30884022EA0000C0B2F9
:101A800070BD00002DE9FE4F044600F026F994F8E1
:101A90007A1004F16005444E94F96BB02846B047C3
:101AA00094F87B1082462846B04794F87C1007468D
:101AB0002846B04794F96A808146B8F1010F6FDB80
:101AC0000BEB0700404294F8707046B2B4F8640023
:101AD000514632463B46CDF80890FFF7F1FEA4F898
:101AE00064008146B4F86600514632463B46FFF733
:101AF000F5FE032FA4F8660008D8DFE807F0020A15
:101B0000111900EB0B0109EB080316E04B460146E7
:101B100013E009F1010300EB0801A3EB0B090CE052
:101B2000411C09F10103A1EB0B00A3EB080904E040
:101B3000411C09EB0B03A1EB080089B200911FFACD
:101B400089F182B29BB22046FFF7C4FDDDF8089010
:101B500030B30020A4F8680094F876102846FFF708
:101B600075FF94F8771006462846FFF76FFF074683
:101B700020463146002200F019F82046394601225D
:101B800000F014F828460121FFF760FF0028EFD18C
:101B900094F969005845DFDB94F86E0084F89200F0
:101BA0004846BDE8FE8F00BF311A00082DE9F04F0E
:101BB00087B004468A466F3094F8689094F86910AC
:101BC000019004F16E000492039094F87070B4F8E0
:101BD00064004FFA89F54EB2B4F866B094F86A80A2
:101BE0000691294632463B46FFF76AFE0590584665
:101BF000294632463B46FFF771FEA8EB090502462F
:101C00005FFA85FB5FFA8AF62846CDF808905E45B4
:101C100038BF504604990029039909D00978C3B206
:101C200084F89210059920460097FFF766FC04E0BF
:101C300094F86D1000290199F0D05E4506D30699FD
:101C4000AAEB050A01314FF00009BEE7069884F8B7
:101C500069000298504484F8680007B0BDE8F08F2E
:101C600070B50C46816DFF2C01F1170104D8612C71
:101C70001ED3B0F8880022E0B0F88A000E1835466E
:101C80002846002100F025F806442846022100F0ED
:101C900020F80435A042F3D303E0A0420DD0B07881
:101CA00006443078717841EA00200028F5D10EE032
:101CB000412C05D3B0F8860001E0F01C70BD014452
:101CC000487820B10A78A242F9D1881C70BD002062
:101CD00070BD405A00BA000C704710B5044644F875
:101CE000601F00202073217E2046FFF7AFFEA07208
:101CF000617E2046FFF7AAFEE07294F83200A073DE
:101D0000B0FA80F04009E07310BDF0B590F8926031
:101D100002F007074FF0010C0CFA07F4751E18BF0C
:101D20002546022E28BF0024066822F00702367CD2
:101D3000D0F834E0724392B272441144059ABAB1B9
:101D40000A78013B22436A400A707A1C12F00707A6
:101D500002D06D00640008E090F89220012A18BFBC
:101D6000654698BF6446428F11441A04E8D107E0E3
:101D70000878013B2043684001F8010B1804F7D1B3
:101D8000F0BD00000821017000487047B400002039
:101D900070B504460878184E207048780D4660707B
:101DA0008878A070C878E0700879207148796071EF
:101DB0008879A071C879E071087A2072487A6072D7
:101DC000887AA072C87AE072087B2073487B6073BF
:101DD000887BA073C87BE073087C207408461121BF
:101DE000B047608228461321B047A08228461521BB
:101DF000B047E08270BD00BFD31C00082DE9FC474E
:101E0000044690F8388090F839600068002590F812
:101E1000119001274FF6F87A02E020680137083563
:101E2000037C616B05FB03F000EA0A0008440090A4
:101E3000F2B22046002100F031F80136F0B24845F8
:101E400038BF4745E9D3BDE8FC8710B590F8381096
:101E5000CA00828790F83920D300C387A0F84030A9
:101E600003685C6944641C7C5B7CE4004487541810
:101E70009C4288BF991AC90001EBC201A0F8421028
:101E800010BDFFF7E2BF0021A0F84810B0F84410E1
:101E9000A0F84A10016CC164FFF72EBD1CB58DF887
:101EA00006208DF8051004998DF80430009184689F
:101EB0006B460F210122A0471CBDD0F808C00A21A3
:101EC000002200236047D0F808C010210022002320
:101ED0006047D0F808C00A460B2100236047F8B5D8
:101EE0001C4615460E46074600F00AF80698C7E954
:101EF0000265C7E904403846BDE8F84000F014B870
:101F00000021084AFF2380F82610016080F828305D
:101F10004FF47F43A0F82330C0E90222C0E9042235
:101F20008161704765220008D0F808C009210022AD
:101F3000002360474FF6FF7011B10A2918BF084609
:101F400070470000B0B5A1F1170504460020092D27
:101F50000CD8DFE805F0050E1C0D0D0D0D0D0D2A3A
:101F600015481946C823FEF74DFE22E0142920D05B
:101F7000B0BD206849210278204600F075F920683C
:101F80006569827820462C210023A84711E020684B
:101F90006569C27820462C210023A8472068492182
:101FA0004278204600F060F903E0B9480821FEF7C6
:101FB00093FA0120B0BD00BF58000020E0B58DF8B5
:101FC00007100DF10702012100F001F88CBDD0F8D7
:101FD00010C013460A4617216047D0F810C00A46C1
:101FE0002021002360470000F8B50546A1F1140048
:101FF000052811D80F461E461446DFE800F01303EB
:10200000030F131328460021FFF7E7FF2846214658
:10201000FFF7D4FF0120F8BD0020F8BD28460121BC
:10202000FFF7DBFFD5F810C0284639462246334675
:1020300001B0BDE8F0406047D0F80CC01921002283
:1020400000236047D0F80CC00A46162100236047E1
:10205000D0F80CC00A46152100236047D0F80CC008
:1020600013460A4617216047F8B50E4604460DF19F
:102070000305374617F8011BA1F11500022811D3FB
:10208000A1F11800022816D317291BD0FE2918BF6A
:10209000F8BD7278204629218DF8032000F0E4F87D
:1020A0000236E6E7727820468DF80320E7680023C1
:1020B000B8470236DDE7E668204600220023B04735
:1020C0003E46D6E7707801218DF8030020462A4667
:1020D000FFF7C4FF0236CCE7D0F80CC0182100226D
:1020E00000236047B0B5456928210022002304463B
:1020F000A847E5682046142100220023A8470F4D79
:1021000020464B210122A847206829210279204638
:10211000A84720464B210022A847206829210279A0
:102120002046A84720464B210122A84720682921A4
:10213000427920462B46BDE8B04018476922000886
:102140000160897C80F8221070470000B0B50D4610
:10215000044600F01BF808B10120B0BD092D09D0DC
:102160000A2D0CD12046FFF7BDFF07492046FFF797
:102170007BFFF1E703492046FFF7E2FFECE7002091
:10218000B0BD00BF944B0008554B00082DE9F0414D
:102190000B3904460020042959D81546DFE801F020
:1021A00003570B142000002D0CBF2D492B4920464E
:1021B000FFF75AFF4AE0002D40D026492046FFF79E
:1021C00053FF2068C07C3FE02046FFF785FF204694
:1021D0008121FFF73DFF20462946FFF733FF29E025
:1021E00020461E46FFF778FF96F8058094F8227087
:1021F00020464021FFF72CFF07EBC807F8B2000983
:1022000000F110012046FFF723FF07F00F012046E1
:10221000FFF718FFB07940F0B0012046FFF712FF3A
:1022200030793268C000C1B22046FFF717FF013D88
:102230002806F5D12046FFF7FFFE07E006492046B5
:10224000FFF712FF2068807C84F822000120BDE89F
:10225000F08100BF4E4B0008474B00088F4B000831
:102260008A4B000800207047D0F814C00023604754
:1022700080B5492905D0292907D11046FEF74CF829
:1022800003E003481021FEF727F9012080BD00BFBD
:1022900000080140002180F82610704702E008C8BD
:1022A000121F08C1002AFAD170477047002001E0D0
:1022B00001C1121F002AFBD170470000000000007E
:1022C000000001020304060708090000831E00083D
:1022D000871E0008B31900085F000202030302040E
:1022E00004040600FF05FF05FF00E901D302B62044
:1022F0000580CD002106E9C8AC00220693CB241549
:10230000230AACC8A434541A2A012409B3C7A5A1CE
:10231000474A002508ABC864D446012609ACC8C5A5
:1023200014AB98022705D1CB082807F2C7A966008D
:102330002908B2C7C45429002A07ABC8A46A352BA0
:1023400008ABC8C5B462022C0692C729002D058BC4
:10235000CA0C2E05C9C8042F07ABC856650430083F
:10236000ABC8554355003107ABC825590D3207ABF3
:10237000C835531A3308ABC8CC9417003408ABC81F
:10238000243562013508ABC88CA817003607ABC8E6
:102390004DD5023708ABC8CC5446003807ABC8ADA2
:1023A000D6023907ABC8B5E4023A06E1C8C4003B1F
:1023B00007AAC765A8003C07ABC8A6BA003D069BA4
:1023C000C9EC013E07ABC8E4AA043F08ABC8E894D7
:1023D00061024006ABC82D5B4108ABC85543A9005C
:1023E0004208ABC8A8B4D2024308ABC85532550066
:1023F0004408ABC8A8642D004508ABC88CA8E2000F
:102400004608ABC88CA862044708ABC8CDA49200AC
:102410004808ABC82435940A4907ABC8AC580D4AE4
:1024200007ABC896AA024B08ABC824B5920A4C0762
:10243000ABC8C4E6004D08ABC8A431940A4E08AB43
:10244000C8AAA124004F07ABC85556055008ABC811
:10245000A8B462045107B3C755561D5208ABC8A8AB
:10246000B4920A5307ABC8EDBC005407ABC8ACD854
:10247000025507ABC824D7085608ABC8246BA40480
:102480005708ABC82435860A5808ABC824D5520172
:102490005908ABC8245556005A07ABC8CC540E5B3C
:1024A00006EAC8AC4A5C07ABC8C45C065D06AAC8AD
:1024B000A86A5E0593CB355F058BC70C6006D2CB4F
:1024C000C4006107A3C82D95046208ABC84495D425
:1024D000026306A3C8CD2C6408ABC8A6A59200650C
:1024E00006A3C855536608ABC8A6B462026708AB1A
:1024F000C7AD2417006808ABC84495AC006908ABA9
:10250000C86524D3006A08B3C766582E006B08ABB1
:10251000C8C4B4920A6C07ABC8C8D6006D08A3C87B
:10252000A4A154006E07A3C8A864056F07A3C855EB
:10253000AA027008ABC7A8B462047108ABC72D9596
:1025400064007208A3C8A41523007307A3C88DBC38
:10255000007408ABC8A51573007507A3C8242B0920
:102560007607A3C824AB027708A3C82435540078A3
:1025700007A3C8A432157908ABC72495E4027A07EB
:10258000A3C8CC94067B08B3C7A624EB007C06E95D
:10259000C80C017D09B3C7E4A8628A007E0794CB0A
:1025A00025950000000004FFFF0000BF02050405A0
:1025B00006010406152600F918FA19F904E10AAE15
:1025C0002258200BD51CF587FFFF7F17002119D556
:1025D0001CF587532316588BF417879CFB00116852
:1025E0009E0D920F2F002224D51CF58743A288450B
:1025F00006516410450651641045065164104506A5
:102600005164104506F9F0FF13002343D51CF587EC
:10261000EB838C3506596390350659638C45C63873
:102620000F8CF1C018171A83AC31C81A83AC31C6AD
:102630002263A007C478608C07C61964AC31C81A3D
:1026400083AC31061B632C32C622637C78243BD5D5
:102650001CF5875B2412689A520C91900C114488E7
:10266000430411011141560984654D6B8925464289
:10267000594490450431811041CA182490F24030E9
:102680002EAD5622F56114002541D51CF587DBE4FB
:1026900010720A298810A204294490500A112410AB
:1026A000E3100A049D4016110412582015956AA8DB
:1026B0001D344821810C524820831022C820848C6C
:1026C0004448398598F2E136002641D51CF587EB60
:1026D000C621A65411441142122124114212216331
:1026E0001141186AC799861A0984884206114590D3
:1026F000420219A42042CC21E494428C3145A4F238
:1027000080286990634AF8701B002710D51CF58754
:102710005B4292487F1FFE7F06002823D51CF58769
:102720007B2396675C793548450A92487F9244122C
:102730004B24B18A241A686289448A02002925D56B
:102740001CF587BD210BB46215492C91481229490B
:10275000227D90440A125820058BB35E8143860F78
:102760000E002A29D51CF5879F2591B6C6204398CF
:10277000128628E40161DC2AD038C488208A0C92B1
:102780000A218898A1C2111F7E14002B18D51CF5B0
:10279000875F2091BEF580200F08F2805024D2F789
:1027A000E177012C15D51CF587FFFF9D110B34CF68
:1027B000C012499C228963012D0ED51CF587FFCDDF
:1027C00067BE0FFF97002E11D51CF587FFFF2281F2
:1027D000E659907CB805002F29D51CF58783818E9A
:1027E000484112491C91C4112948228124124822CF
:1027F0008124124822812412482281448E0FDB005A
:102800003043D51CF587FBC5A5B592092591420E2D
:1028100031C510530C29A610630A29231042C81091
:102820008490310621648C41081183506114428EDA
:1028300021A518628A21A618724821C80493D64A95
:10284000AE7C783116D51CF58717C8330D2DC548D9
:10285000202C1012E9FFBF0F0F3221D51CF587F392
:10286000C625C55211E61043904024D2208904D2D7
:102870005E05E92249C1FC3E9C063328D51CF5873C
:10288000F3C525C55211260953220D9276186AA860
:10289000A558451A0A889C61C831C220A654331F26
:1028A0005E00342FD51CF587474624B07AC65D6D8F
:1028B00004C248206C08B2C6206B0CA20621891005
:1028C000924621E881501E08E581E048A4F7E13AEC
:1028D000003525D51CF587D3EE788744BAB8144B5C
:1028E0000D9152CE3844924867C621861C624E38FC
:1028F000A7A5D5CC87073635D51CF587FBC5A5B56B
:10290000920905952212892352C1A8861A32A39CE6
:1029100052C8A10C39C490430C39C4904319724871
:1029200021A98892D64AAE7C7801003721D51CF5C2
:1029300087D3EE7871441247A4E288248E48C511EB
:10294000A938220549A42089E4C323003839D51CBD
:10295000F587F3A629C552110591520E31E41043B3
:102960000E31041142521164298618094511421092
:1029700031141A86205208228520528A21C70883E2
:102980009852CD7C783935D51CF587F3C5A5B5921D
:10299000092591420E31E450861C62C821861C62D2
:1029A0004A29A70C731C6ACA0412A9382249A290AA
:1029B0005482416CA5663E3C01003A16D51CF58751
:1029C000FF1A81E659907C788940F32C483EDC025E
:1029D0003B1CD51CF587FF1A81E659907C7869C4A9
:1029E00002CD33B04412A748E29881013C1BD51CAC
:1029F000F5879F0A72C0E20EBBE70A34F08206DE5A
:102A00006089648A0F0F023D1BD51CF587BFFD80CE
:102A1000200F08F280F830F880200F08F280F8F0DC
:102A20002F023E19D51CF5872F073A6481E8E17B18
:102A30005633EDB03B671E89E2C3073F25D51CF531
:102A40008753A529C59011E6104390400405442200
:102A500005092CAF8254A43E240934CF82E4C30379
:102A60004043D51CF587FBA629C59011E55085A4E8
:102A70005186416410350659630C23C818A21032E0
:102A80008620858C214821630842CA18A304338814
:102A900060648C45C8288110224B3C8224A6163BDA
:102AA0001FAE034138D51CF58717C21C728A051664
:102AB00068DC08C38D301A09848D31D818449141DF
:102AC000D4284331D4903BE310430E3123114212FA
:102AD00021449131161164910F9701423AD51CF5AA
:102AE00087CB4B35E40E21C790530A41A410440A0A
:102AF00041A490430C21C7B8D3D033E494421029A9
:102B000024114212212411421221049142CA29CFD8
:102B1000B8C33E9C07432AD51CF587FBA6A9D4CE93
:102B200011C614434A418490240C8124D24F924808
:102B30006241E21443CC11E634A59AF9701E0044B8
:102B40003ED51CF587CB4B35E40E21C710530C390D
:102B5000A510440A41A4904408498490440849843B
:102B6000904408498490440849A310440A41A49021
:102B7000430C31C510624E432CA90F2F004522D5BE
:102B80001CF587CB0F84F240280F8442227DD11D93
:102B9000EF9048BFF840280F84F240F8701A0046C2
:102BA00016D51CF587D3CF7C8644FA62431D22914B
:102BB000FEFBF00C004732D51CF587FBC525D58EF2
:102BC00019E55085A061480A67447A051152102121
:102BD000051192082189148248218818728839C207
:102BE0001C97143B1FCE034846D51CF587CB049198
:102BF0004210290491421029049142102904914263
:102C0000102904914210290F84F240280F844210A9
:102C1000290491421029049142102904914210295B
:102C2000049142102904914210F9701A004913D5F9
:102C30001CF587D30D758D44FAFFC71AEA3E1C07B1
:102C40004A1CD51CF587EB2C718D44FAFF543024B7
:102C50000D52501145AD955CF9F006004B40D51C66
:102C6000F587C30415421029E410431D520822843D
:102C700024328822A22812CA4A0CB5C41223822CFC
:102C8000328822A324424822852052CA21A61872E3
:102C90008821A714820A21897C380D004C11D51C8B
:102CA000F587CB24D2FFFFC567BE0FB7014D4ED5C8
:102CB0001CF587C3630D4212212411524E21E514E5
:102CC000628A21A61872C621671C42C214082161BB
:102CD0000A84105104214414410819631042C61893
:102CE00084101208950821891092082189109208F1
:102CF000218910920821897C380D004E4DD51CF594
:102D000087CB0491421029E590520E29C690720A91
:102D100029A790820829240C420A09649042C41809
:102D2000A4104115328620850C12482164045208F3
:102D3000418594538831851853C829859C520822AF
:102D4000852052481A1F4E034F3BD51CF587F3A62A
:102D500029C59011E6104321520822842832882286
:102D6000832832882283283288228328328822834B
:102D70002842861A8520520822863A4618C4946A48
:102D8000E6C3035029D51CF587CB2C35E40E29C6A4
:102D900090530A41A410440A41A410440A39A59052
:102DA00062CC33EEB04422FDFBF00E005143D51C43
:102DB000F587F3A629C59011E610530A41A41044E3
:102DC000CA5064104506516410450651641045060A
:102DD0005164104506516410450841A410440C315B
:102DE00015298829D50E1C92C4D4903B1F38005257
:102DF0003ED51CF587CB2C35E40E21C790530A41F4
:102E0000A410440A41A410440A39C490628C3B0DBA
:102E1000B14408498490440A41A410440C39C414B4
:102E2000430E31E49442102904950F97015330D595
:102E30001CF587FBA6A9D49011C614330E41E2906D
:102E400048248906A287DE81271249223141912236
:102E50001429039172C4310E31763E9C075416D565
:102E60001CF587C30F08F280200F884522FDFFDF85
:102E70008717005542D51CF587CB24114212212417
:102E80001142122124114212212411421221241133
:102E900042122124114212212411421221241142F2
:102EA000122124114212210495420E316698D3D288
:102EB00062E7C37900563BD51CF587C344914114A2
:102EC00019448D421029041133D038E48C430C414D
:102ED000C38C44CA48841035C858648C4504614387
:102EE0008C46C268C899674112891C527C780200DE
:102EF0005752D51CF587BB848D31D818A38832C6AC
:102F000028838C41C834283206354619A38851C617
:102F1000286294218C18850423462161564810624A
:102F200084618C18411C23CC31A39C42CA29A49CE7
:102F3000420A1A66A461461A66A4614612487C38A1
:102F40000E005839D51CF587C32491421031D42185
:102F50006624424822642C22C8228134E4CC339077
:102F6000C0028D430D3122C822822842482284208B
:102F70006228440A418410453E5C065929D51CF557
:102F800087C344914112290491420E65C8218524CA
:102F9000424822642C22C8226234D4CE33AF44FA91
:102FA000EFC30B005A2ED51CF587CB0F84F24028B7
:102FB0000F04482281542490C411092491402A12FC
:102FC00048E28804923858200F08F280200F880FBA
:102FD00097015B14D51CF5873B2C718944FAFFFFE0
:102FE000224BDC870A005C2BD51CF587BD11892498
:102FF0009148128924914812892491481289249178
:103000004812891C92C8214924924422870C1F0E21
:10301000015D12D51CF5872B0D7591FEFF7FA8F77A
:103020002103005E20D51CF5871784249140E350CE
:103030001B813022C81A642842082266A870C28701
:10304000FF87015F13D51CF587FFFF671F18E3811A
:10305000311E181F1A00601AD51CF5873B818A297A
:10306000E690249258C112899CE690E2C3FF410089
:10307000612AD51CF5877FE1B0951A2AC2A4804841
:10308000A4123BCE3C530C290491424E29C49862B1
:103090000432EFB85406F9701A006233D51CF58774
:1030A0002324D24F14D5903B4718530C754A2188DE
:1030B00014824821881482482188148248218798E4
:1030C000628831C318774648688CF2E1016321D5E4
:1030D0001CF5877FC234A51832C2986228240C8957
:1030E000F42489E5087444412DA9663E9C076435A3
:1030F000D51CF5878324D2A78A20A81D678C388623
:1031000098520822852052082285205208228520C4
:10311000520822A51C628829C688731C6AAA08F274
:10312000E13400652CD51CF5877FC134A5582AC22F
:103130001C62C819881482487920940742792014A7
:1031400012492C91A0908C30A7A5D5CC87F30066AE
:103150001CD51CF58763A629C552110511231289B8
:10316000546BA86324D2FFFBF006006736D51CF52C
:1031700087BF5FC838AF3C100A21E510331031E437
:1031800010430E2905155112534AA54562810EB907
:10319000F30A418490440849849C61CC3B6CA10EA5
:1031A000006836D51CF5872B24D26F94440242EE7A
:1031B000A0508E29C414431D62C821861C62C821F8
:1031C000861C62C821861C62C821861C62C82186B2
:1031D0001C62C8211F4E036919D51CF58753431281
:1031E000582289E3838C1A16E9FF1A4BDC87E30027
:1031F0006A1FD51CF58773231658C5F181554B8B73
:10320000F4FF53C190244A414594B45672E6036BCF
:1032100035D51CF5872324D2EF94424C31A4944336
:1032200048416494440459241096B112C82283285A
:10323000324A22A42052CA21861C628A21A7148203
:10324000CA87CB006C12D51CF5872B896591FEFFD0
:10325000C7DCF13EDC066D1DD51CF5873F4D02191C
:10326000A43C20C8036394604219F4FFFFFFFFDF12
:1032700087CB006E35D51CF587BF4D46492420E429
:103280000E0AE598424C31D421861C62C821861C66
:1032900062C821861C62C821861C62C821861C6205
:1032A000C821861CF2E136006F30D51CF5877FC13E
:1032B000B4B41832C19C528A218714920821891013
:1032C00092082189109208218914728829861C137A
:1032D0004C622AB9F2E105007034D51CF587BF4D68
:1032E00044510DB9738431C550A714824821881404
:1032F000824821881482482188147288298698235C
:103300008C71A721228A2291DE0705007132D51C1B
:10331000F587BF5F0441ED3863C431C4944210297E
:10332000049142102904914210290491421031E481
:1033300010434C31469CE350534590485F06721C45
:10334000D51CF587BF4E464924A4F34C0AE4182344
:103350004E81059248FF7D7805007328D51CF587BE
:103360007FE1B095DA31E21872C62128A012CF535E
:103370000E41138B118998814839C21C87D8421F8E
:10338000CE03741DD51CF58757492471C8A9B9E32C
:103390002D12E9BF22940964AD959AF9701C00754D
:1033A00035D51CF587BF4D0E31E410430E31E410C6
:1033B000430E31E410430E31E410430E31E4104368
:1033C0000E31E410430E31A59463C2390E35550415
:1033D000F9701B007630D51CF5873F5DD228248D0F
:1033E000421031038D43CE38C41044CA48A40C3572
:1033F000C858648C450461248C869C79E69548E223
:10340000F8F004007743D51CF587BF4C161963917B
:10341000318A20640C42066D0C420619A38C51C4FB
:1034200028431831CA10468C428208438C428210CD
:10343000230C6384394698538639859453484184D4
:103440009034CCF8701C00782FD51CF587BF4D1038
:1034500029C590430A4984104504592490769E79E1
:103460000516681C6244104506518410440C315501
:1034700021887C380D007939D51CF587BF4D122184
:103480000491421031E41043CE40C31044CA50832B
:1034900010450651640C460261240C37C270E715D2
:1034A000582089D40A84AC21CA4A0CBDF2C1007AE2
:1034B0001DD51CF5873FFECC07E9607915A4C1F244
:1034C000CA7B2094074279207C380D007B21D51CD3
:1034D000F587270E4B4B29F348A40F12775C812602
:1034E00016392489F48B059EA7586A28037C0ED5CB
:1034F0001CF5875324D2FFFFFFE7017D1FD51CF584
:1035000087D3C725A6609124D227493CCF72E59185
:10351000487FB038B3D44A0C7D007E17D51CF587A0
:103520007FF314515628E301510641AE7CF87F0227
:1035300000A00BD51CF587FFFF7F1700A118D51C35
:10354000F58753049A6783E40334E414E91FAC1746
:10355000C7872700A240D51CF58737482471C801CA
:103560008B4BAA9D129029828461C818231842C6E9
:10357000088690A108198A90A1C8208A0CA2C818B0
:103580008C8841C229610C815028A8A5C58E1B7268
:10359000F6610100A32BD51CF587FBC5A5B59209E3
:1035A0002495121489144C2C73449248174724F024
:1035B00098605618E501418A5025A0F2E13800A430
:1035C00029D51CF5878F8B24CE3B2DAD540649E3BE
:1035D0000C34CE40E30C440A492594D4CE33431432
:1035E000314E50E2C3BF0900A52FD51CF587C34457
:1035F000114210290411431D624622842442C6222E
:103600008230124643CE3C030973C7632412E68E10
:10361000C748A43EBC0000A611D51CF5875324D290
:10362000FFF7012791FE9F07A73AD51CF5874BA608
:1036300029C55211E610331031229158A281A829D0
:1036400035C4418498430C39C4906308414CA98621
:10365000A0892512240E39C3147344414DA9663E36
:10366000E401A818D51CF587C541862AA2A4224AE0
:103670002AA2A841C687FFFF1500A948D51CF587D7
:103680005F284E2986482986041308210105324601
:1036900050618811081961881146196284498D307A
:1036A000A9112635C208848831C210541863041544
:1036B000C618020542C620829462C8694A35F3E101
:1036C0003C00AA25D51CF587F3C621A69820838542
:1036D000421A5A4AAD440849A3904446494C2D9693
:1036E000BA3BDE87BF0E00AB2ED51CF587FF5A30E4
:1036F000810D32541124154112192491411219449B
:10370000155154114515515411451541D6208305C5
:10371000133E7C0800AC10D51CF587FF4BEE78916A
:10372000DE873F0400AD0ED51CF587FFCD67BE0FC9
:10373000FF9700AE47D51CF5875F284E298648299C
:103740004609424648810C21C61862464618621A4C
:10375000448C30441A230C91C608432032C2101303
:103760001981843186186384318618E390430822D6
:10377000C50C739A52CD7C380F00AF0ED51CF5875F
:10378000E34B6D1FFEFF4700B01CD51CF587F3A669
:1037900025A6541125114212212415519462C89571
:1037A0000FFF1F04B120D51CF5876F91486F3D2096
:1037B000C803823C201489F4FBC03E20C803823C2D
:1037C000203E5C06B21ED51CF5874BC5A5B5141965
:1037D000448D32E4880492573D02096489FBF0BFAE
:1037E0000A00B321D51CF5874BC5A5B5D620430EDD
:1037F000779C794712399430231142D25AC9950FD8
:10380000FFCB00B414D51CF58789304924B0402A79
:103810008E293EFCFFEB00B53BD51CF5873F4D0ED6
:1038200031E410430E31E410430E31E410430E3105
:10383000E410430E31E410430E31E410430E31A581
:103840001421C4094B3C40C4124650641012E97D57
:103850006000B64CD51CF5874B0BB5E38C12A32C3E
:1038600031CA12A32C31CA12A32C318C12C32831B5
:103870004E12032131941183113118118311311823
:10388000118311311811831131181183113118115D
:1038900083113118118311311811E3431900B71145
:1038A000D51CF587FF0D02CDB320F9F0BF0C00B891
:1038B00013D51CF587FFFFF7C524B1B031064BAE19
:1038C0002000B913D51CF5875B031677B930869CA9
:1038D000FF3EFC2F03BA2AD51CF587FBC521A6D6CF
:1038E00020241142D230230D33D230230D33D2287D
:1038F0002411429462E8910F843BDE87BF0E00BB27
:103900002ED51CF587FF5230810D321611651151ED
:10391000161964914116192415515011051551506D
:1039200011251151D4208305133E7C0C00BC4ED5CB
:103930001CF587BD81C2296810830609629C81C677
:1039400019681882861969149246196A10A2061914
:103950006B0C124724714412472464A84148228406
:10396000A4414A1A438481C61861A021A643823229
:1039700043A842D040210D393EA401BD4DD51CF5D0
:1039800087BD81C2296810730809629C81862168FD
:10399000989186196994A146196A10A206196B0CB0
:1039A0001247247144124724A2A8214E1A610872BA
:1039B0008610649C818619689CE99042D028049105
:1039C00032942889A50F6100BE4FD51CF587B9F246
:1039D0005019458C51861A841C43C831832C228887
:1039E00009658871C42081982406428128324624C2
:1039F00071441247247190A108196A1092C828696D
:103A00000C83C81061A0318418680855C65065A0A1
:103A100081041A727C4803BF28D51CF5874B049A91
:103A20006741F20127918204965741020B2491428B
:103A30000111241031E498701053AA950F2F00C083
:103A40003ED51C3517B23C04CB141F9C30879C62BA
:103A500081051A37C270238C460261630C36065109
:103A6000641035CA500C35E4CE38C49043CC488439
:103A700090440851648C450459E4C36500C13FD5A6
:103A80001CF5074140D35033507CB0C21C728A05EC
:103A90001668DC08C38D301A09848D31D81844911A
:103AA00041D4284331D4903BE310430E31231142DB
:103AB0001221449131161164910F9701C243D51C14
:103AC000750A7344D3D22AA12832C80A46C0308767
:103AD0009C6281051A37C270238C460261630C36E2
:103AE0000651641035CA500C35E4CE38C49043CC2E
:103AF000488490440851648C450459E4C36500C36C
:103B000042D51CB5210F8971DC2101A940CA073AB1
:103B1000CC21A7586081C68D30DC08A39140D8180D
:103B2000838D411419448D3214430DB9330E31E4A1
:103B300010331221241142141963114116F970191E
:103B400000C43FD51C751E64A8224A2AA2A4228A5A
:103B50001A647C50C494248924966739D486186DDD
:103B600008B288206B90B1062189A586DA21861CCF
:103B7000CA0C440A49A30C4506516490453E5C06B4
:103B8000C543D51C351AB1BC218413433831841B7D
:103B900061BC12879CC5020B346E84E146186E042A
:103BA000C2C6186C0CA2C8206A94A1186AC89D717C
:103BB000882187188248198910A206218A8CB1C8E9
:103BC00087CB00C639D51CF587F32C31D4D071A72B
:103BD000A136026923104602614310364432442460
:103BE00033463263104506515B6289109246218844
:103BF0001482485162182586511F2E03C731D51CE7
:103C0000F587FBC525D5CE11C614434A41849024BF
:103C10000C8124D24F92486241E21443CC11E63425
:103C2000A59A89629258D8188325573A00C826D594
:103C30001CB521D1C003090DFF81501E08E581503C
:103C400048A42FBAE31D12E9171F08E581501E088A
:103C50001F1E04C926D51CB522EF30E4C807F78122
:103C6000501E08E5815048A42FBAE31D12E9171F22
:103C700008E581501E081F1E04CA2DD51CB50A92E6
:103C800040E3D02A82AC41C60A27A4074279209497
:103C900007422191BEE88E7748A45F7C20940742BA
:103CA00079207C380D00CB2DD51C751E65A4320AF9
:103CB0002AA3A0324A1A65F40742792094074221C8
:103CC00091BEE88E7748A45F7C2094074279207CDF
:103CD000380D00CC1BD51CF5099344034F1C347CD4
:103CE000101AEA1A89F4FF8F35D47D380E00CD18EA
:103CF000D51CF51AEFB4E3C807B8A1AE9148FFFF91
:103D00005843DD872701CE1ED51C75129240D3D2B1
:103D10002A822842C60A27A886BA4622FDFF630DDA
:103D2000751F8E03CF1ED51C751E65A4320A2AA3EB
:103D3000A0324A1A65F886BA4622FDFF630D751F48
:103D40008E03D03BD51CF587D36AB1D41019E79008
:103D5000520E31C590430C39C410440A4164A44248
:103D6000462A64A4422152082285A061C821861CEB
:103D700062A8434A396418D4D052EAC303D157D554
:103D80001CB521F088811A22E1A840CA079320526D
:103D90000822A51C52CA21C518524E21E514521002
:103DA000218584414821810C528818831422A8421D
:103DB000C610A490410229848C400A21A890720A5E
:103DC00031A610630A39A590530A41A410440A4948
:103DD000E3C36900D241D51C3517B2C003CB141F11
:103DE00014D39462C8087388A110290411421419CD
:103DF00044914114194491411419449141141944B6
:103E000091411421438D4210290411431D230C625A
:103E10004A35F3E101D342D51CF50761C0E28E2B90
:103E2000507C904C538A2123CC218642A410440814
:103E30005164104506516410450651641045065101
:103E40006410450651840C350A41A410440C758C4D
:103E5000308829D5CC8707D444D51C75129240E30D
:103E6000922AA2A841C614CD34A51832C21C6228D9
:103E7000440A4184104506516410450651641045BA
:103E800006516410450651641045C850A310440AF9
:103E900041C450C708839852CD7C78D544D51CB511
:103EA0002924A414C671688803C907D834A5183218
:103EB000C21C6228440A418410450651641045061C
:103EC0005164104506516410450651641045C850B0
:103ED000A310440A41C450C708839852CD7C78D6B9
:103EE00047D51C751964A8224A2AA2A4228A1A64FA
:103EF0007C804D538A2123CC218642A41044085152
:103F0000641045065164104506516410450651641D
:103F100010450651840C350A41A410440C758C30B0
:103F20008829D5CC8707D729D51CF587DF0C731CCA
:103F300081882188909288282BB5F3CA330EB1125C
:103F4000882AA2A0420A1A86A480C487BF0400D887
:103F50004DD51CF587F130493262A076DA31C21CAA
:103F60006228630A31861033C220C40841062943FF
:103F70009041C8181419831A839041C620641031E7
:103F80000A19448C420609C38C720A29C610530AC6
:103F9000394698D321224A22537C1807D948D51C88
:103FA000F5097444034F1C347C920821891092084F
:103FB00021891092082189109208218910920821E4
:103FC000891092082189109208218910920821896C
:103FD000109208218910824A21871833CC6969B16F
:103FE000F3E13C00DA48D51CF51AEFB4E3880C1F66
:103FF00010920821891092082189109208218910B5
:104000009208218910920821891092082189109222
:104010000821891092082189109208218910824A6A
:1040200021871833CC6969B1F3E15100DB4CD51C11
:10403000751AB1BCD3922AA2A851C60C8824424852
:104040002284244248228424424822842442482252
:1040500084244248228424424822842442482284E0
:1040600024424822842442482284A052C821C60CFB
:10407000735A5AEC7C380F00DC4DD51C75995219D7
:104080000595515019258D323E902411421221245C
:104090001142122124114212212411421221241111
:1040A00042122124114212212411421221241142D0
:1040B000122124114212210495420E316698D3D266
:1040C00062E7C37900DD30D51C350B923CD3CE239B
:1040D000317C4088228324520822851CCA90430ADE
:1040E00049849044C858449045C468A89D675E8937
:1040F000F4DF871700DE29D51CF587CB24D2C586CF
:10410000DC79869862082285205208228520520890
:1041100022851C629E71A72112E97D780700DF4687
:10412000D51CF5874BC5A5B592110591520C39C424
:1041300090430C39C410530C29E51071101107116C
:10414000910C31A610440A4185904408498490445A
:1041500008498410440A11429842823224A44384BC
:10416000F9701E00E034D51CF5877E98239648240C
:10417000894412193E3087ADD4501126054422954A
:10418000D871E6996248218814724A21C614239096
:1041900079C7A532C887D300E133D51CF58709312B
:1041A000472CAF402A92193E3887ADD450112605CE
:1041B000442295D871E6996248218814724A21C632
:1041C00014239079C7A532C887D300E239D51CF5EE
:1041D000870521472CEFB8110823812C32080B45A5
:1041E0007C300E5BA9A1224C0A88442AB1E3CC336F
:1041F000C590421029E494428C294620F38E4B65E9
:10420000900FA701E334D51CF587C9F29018C7A118
:10421000218E0AA47CA81DB65243459814108954D7
:1042200062C799678A21852052C8298518538C4016
:10423000E61D97CA201F4E03E437D51CF5873BA324
:104240008C5446416514544649A38C0FEE614A359F
:1042500054844901914825769C79A61852082285F4
:104260009C528831C50864DE71A90CF2E13400E586
:1042700037D51CF587FE80E609319C18C209319CB0
:1042800089E3837DD84A0D156152402452891D6708
:104290009E298614824821A714624C310299775CCA
:1042A0002A837C380D00E63CD51CF5873F4F083942
:1042B0002898F2802024A0304A28840C45C85084D5
:1042C0008CF240200F88F1C010659044084984901A
:1042D000444821611471C4180F0C72C431A5900FA9
:1042E000A701E72AD51CF5877FC234A5DA31E2940D
:1042F000728621481812E94912CB11E888825A5A6D
:10430000EC4031492C4D10C192331C00E836D51CCD
:10431000F5877E9823964824894412193E30A629B1
:10432000C55211E61043CE40A41044CA03A13C106C
:10433000CA03A19048628904856484392DAD663E24
:104340009C07E935D51CF5878940472CAF402A12D8
:10435000293E38A629C55211E61043CE40A4104488
:10436000CA03A13C10CA03A19048628904856484F1
:10437000392DAD663E9C07EA3AD51CF587BE9823D9
:1043800096771A6A439045065982880F88694AB120
:10439000548439C4903310290491F240280F84F2D8
:1043A000402824925822412119614E4BAB990FE7C6
:1043B00001EB38D51CF5873BA38C5446416514545A
:1043C0004649A38C0FAE694AB1544639E44C69148E
:1043D00092467920940742792014128924912081F1
:1043E0008C30A729D5CC87F300EC1CD51CF5879021
:1043F000882456914812C70C1F14D4B048FFD758D0
:10440000E23E3C0900ED1BD51CF58798902412482C
:104410006081248E0F326A58A4FF6B2C711F9E049A
:10442000EE20D51CF5877E984312681C6224103656
:104430000661A1880F026A58A4FF6B2C711F8E03BE
:10444000EF1FD51CF5873B830C55444945945444D4
:1044500051838C0F2A6A58A4FF6B2C711F8E03F0B6
:1044600039D51CF587C9010F094CB184D6526B0CA4
:1044700022094B8AA1768C30A62AE4144212212408
:104480001142122124114212212491420E31C59071
:104490006382494CA9663E3CF140D51CF587C5F2C4
:1044A000CE10A82112500AA57C289151120908B9F2
:1044B000834239A610530C7588218718728821878A
:1044C00018728821871872882187187288218718A6
:1044D000728821877CB80D00F239D51CF587BC9015
:1044E0002356914812890C1F1CD3D262C804734A08
:1044F00029861C524822842442482284244248228D
:10450000842452C821A618724C3089A9E4CA87179E
:1045100000F339D51CF5870531472C908205921997
:104520003E40A6A5C59009E694520C39A4904408D3
:104530004984904408498490440849A490434C31EC
:10454000E498601253C9950F2F00F43FD51CF587EE
:10455000BE90239677DC0884914016198485223E0C
:1045600020A6A5C59009E694520C39A490440849A8
:1045700084904408498490440849A490434C31E411
:1045800098601253C9950F2F00F539D51CF587C5D2
:10459000F29010C89D31CE2B1F72A6A5C59009E6DA
:1045A00094520C39A490440849849044084984905A
:1045B000440849A490434C31E498601253C9950FC4
:1045C0002F00F63DD51CF58733A38C544641651466
:1045D000544649A38C0FB0696931648239A51443EC
:1045E0000E292411421221241142122124114212B7
:1045F00029E410530C392698C45472E5C30B00F714
:104600001AD51CF5871F16924422C507F799EF4368
:104610004E481289141F7E1700F83FD51CF587DF1E
:104620001693ACA45662C80473CA3886901146210A
:104630006408420819821032C620840832082162B8
:10464000102A1042CA0883106348392698C4D052F1
:10465000239445A4F8300E00F93FD51CF5879288C5
:104660002512492291448A193E10E410430E31E488
:1046700010430E31E410430E31E410430E31E410C8
:10468000430E31E410430E31E410534A39269CE3C3
:10469000505345900F2F02FA3CD51CF5879698048D
:1046A000164893E3834B0E31E410430E31E410437C
:1046B0000E31E410430E31E410430E31E410430E8A
:1046C00031E410430E31A59463C2390E355504F917
:1046D000F02200FB43D51CF587BE90041668DC0869
:1046E000841131D8188485123E39C490430C39C4E2
:1046F00090430C39C490430C39C490430C39C49096
:10470000430C39C490430C39C494528E09E738D411
:104710005411E4C36D00FC42D51CF58733A38C54BF
:1047200046416514544649A38C0F2639C490430C66
:1047300039C490430C39C490430C39C490430C39AC
:10474000C490430C39C490430C39C494528E09E789
:1047500038D45411E4C36D00FD43D51CF5879890FF
:104760002412486081248E0F2E498410440A41C4CB
:1047700090430C39030D431029430D421419449101
:10478000311809849130DC08C39D57608124522B75
:1047900010B286282B31F4CA071800FE35D51CF557
:1047A000872324D24F14D5903B4718530C754A21C8
:1047B00088148248218814824821881482482187DD
:1047C00098628839C218771A22A22812E97D50000F
:1047D000FF48D51CF5873B830C5544494594544408
:1047E00051838C0F2649A310440C39C49033D03028
:1047F0000491421029430D421419648D311809A403
:104800008D30DC08C39D576089438E489620838D88
:10481000505662E8950F060000000004FFFF0000FC
:10482000120205040506010406182700F81EF81EEA
:10483000F700000000030A200BF80CF887FFFFFFC9
:10484000CF002A31F80CF8870F964928D582216DC0
:1048500010524431828C421E28E481729C331141F3
:10486000F48820AD88B20A29A998828A2969A0F122
:10487000E19F032B1BF80CF88777CBAC6F3D50C83A
:1048800003853C50C8038595597F1FFE49002C18AD
:10489000F80CF887FFFF6B641A79E225CD2C935052
:1048A00032293A6C70002D16F80CF887FFFA03C312
:1048B0003C30CC03C33C303EFCFF2D002E12F80CE4
:1048C000F887FFFF73831679E2250B1D1F1E2F2F1C
:1048D000F80C781C95CC32C9AC649945965964990A
:1048E0004596592699659259269965925926999522
:1048F0002CB3C8328B2CB34C62C5876700304DF89F
:104900000CF807DAC4D4D872CA08938A29A8987216
:10491000CA31A61C63C839A598444A21A190528681
:1049200028A410220A29838C42CA18A412A3145264
:104930000229852453CA39A598538C39B5634A494D
:104940006698E4167329960FDF033119F80CF807FF
:104950009C480391538CB5124A13A4CCFAFFFF3E36
:104960007C0F00322FF80CF807DA40C59A7AA9902C
:10497000732A3452492195599B641659A489562C9F
:10498000B2DE24B3C80786796098078679607CF820
:1049900012003336F80CF807DA40C55C7A2024524E
:1049A0008C12A7D032CB24B344D3944B4FB925CF2C
:1049B0002CB4CC5A0AA920910A1AA7A042CE792079
:1049C00024C7D63B1FBE07003435F80CF8079FCC30
:1049D0004A9A7841F49223A138124A23A230320A2B
:1049E00023A32C428A22A528524A22A6A0070A798C
:1049F000A090070A79A0BC32EBF7E163003538F8E4
:104A00000CF807F501711E10E701711E10A7CCBA52
:104A1000C998532F3D109021069163524885125A30
:104A2000660D0545CE48C59463CC21063D10925BCA
:104A3000EB9D0FDF033642F80CF807DC40C59A7A8D
:104A4000E81092CA11A9CC32C92CC2AC971E08E852
:104A50000171D030C79C620A2AA624624A2AA5A402
:104A6000524A2AA5A4624822A73AC6146486514E27
:104A7000B5A6A0F9F03900372DF80CF807F48161DC
:104A80001E18E681611E18B2CC22CB2CB2CC32C9E2
:104A9000AC6499659259C932CB24B3926556B2CCB5
:104AA000EAC337013840F80CF807DB40C59A7AC9E9
:104AB0000C938A29A73E540C49A514654461CB2563
:104AC000B758112795525039E590444C49A5945454
:104AD0004A49A594548A39C69862CE032139B6DE74
:104AE000F9F039003941F80CF807DA40D5D872C925
:104AF00010838A29A7A0620A2AA624624A22A62431
:104B0000624A2AA61C630C41E701711E102985B276
:104B10008C20949A550AA8A4614C22C424A71A5B3D
:104B2000D07CF820003A1AF80CF8873F3D689127AE
:104B30005EB2D0F1E1DB831679E2250B1D1F1E006A
:104B4000000004FFFF00001815A115C819FF181573
:104B5000A015C019FF1815AE15D5168015A8163F5B
:104B600015D316001540158D16141520160015A125
:104B700015C815DA1612158116CF15D916F115DBE1
:104B80001640152E15A415A619FF1815AF19FF18F4
:104B900015AE19FF0001140A6464323200127A0063
:104BA000000428961008000080004000D04B000848
:104BB00000000020100000009C220008E04B0008CC
:104BC00010000020A8080000AC220008000000002F
:104BD00010000000010000000024F40000000000AC
:04000005080000ED02
:00000001FF
